{
  "_format": "hh-sol-artifact-1",
  "contractName": "Calend3",
  "sourceName": "contracts/Calend3.sol",
  "abi": [
    {
      "inputs": [],
      "stateMutability": "nonpayable",
      "type": "constructor"
    },
    {
      "inputs": [],
      "name": "getRate",
      "outputs": [
        {
          "internalType": "string",
          "name": "",
          "type": "string"
        }
      ],
      "stateMutability": "pure",
      "type": "function"
    },
    {
      "inputs": [],
      "name": "getRateValue",
      "outputs": [
        {
          "internalType": "uint256",
          "name": "",
          "type": "uint256"
        }
      ],
      "stateMutability": "view",
      "type": "function"
    },
    {
      "inputs": [],
      "name": "owner",
      "outputs": [
        {
          "internalType": "address payable",
          "name": "",
          "type": "address"
        }
      ],
      "stateMutability": "view",
      "type": "function"
    },
    {
      "inputs": [
        {
          "internalType": "uint256",
          "name": "_rate",
          "type": "uint256"
        }
      ],
      "name": "setRate",
      "outputs": [],
      "stateMutability": "nonpayable",
      "type": "function"
    }
  ],
  "bytecode": "0x608060405234801561001057600080fd5b5033600160006101000a81548173ffffffffffffffffffffffffffffffffffffffff021916908373ffffffffffffffffffffffffffffffffffffffff160217905550610319806100616000396000f3fe608060405234801561001057600080fd5b506004361061004c5760003560e01c806334fcf437146100515780634751549a1461006d578063679aefce1461008b5780638da5cb5b146100a9575b600080fd5b61006b6004803603810190610066919061017e565b6100c7565b005b6100756100d1565b60405161008291906101ba565b60405180910390f35b6100936100da565b6040516100a09190610265565b60405180910390f35b6100b161011d565b6040516100be91906102c8565b60405180910390f35b8060008190555050565b60008054905090565b606060006040518060400160405280600b81526020017f48656c6c6f20576f726c6400000000000000000000000000000000000000000081525090508091505090565b600160009054906101000a900473ffffffffffffffffffffffffffffffffffffffff1681565b600080fd5b6000819050919050565b61015b81610148565b811461016657600080fd5b50565b60008135905061017881610152565b92915050565b60006020828403121561019457610193610143565b5b60006101a284828501610169565b91505092915050565b6101b481610148565b82525050565b60006020820190506101cf60008301846101ab565b92915050565b600081519050919050565b600082825260208201905092915050565b60005b8381101561020f5780820151818401526020810190506101f4565b60008484015250505050565b6000601f19601f8301169050919050565b6000610237826101d5565b61024181856101e0565b93506102518185602086016101f1565b61025a8161021b565b840191505092915050565b6000602082019050818103600083015261027f818461022c565b905092915050565b600073ffffffffffffffffffffffffffffffffffffffff82169050919050565b60006102b282610287565b9050919050565b6102c2816102a7565b82525050565b60006020820190506102dd60008301846102b9565b9291505056fea264697066735822122079ffb609d3262f1f522d353e76b87e355a5960f6086c35949420968db8d6f60a64736f6c63430008110033",
  "linkReferences": {},
  "deployedLinkReferences": {}
}